:020000040000FA
:040000008A01102839
:08000800A00003088312A1000F
:100010000B198320831221088300A00E200E0900F3
:100020008B0197019D018101B001A401A601A501E9
:10003000A701A801A901AA01AB01403087008601F0
:10004000A3011D30B10083163F308500F1308600DA
:10005000A030870002309F00C83081000E080339AD
:100060008E140E148312A30018300305A304640039
:10007000B401B601B701C301A8308E0061308F0012
:10008000013090005730B500D601D701102164002F
:100090000C1C4728A8308E0061308F000C10EE2316
:1000A0007D252B255525B50F6428D60345188E25AB
:1000B000C51891254C145730B500360B6F28B40A7B
:1000C00034080F39031986240730350582076C2957
:1000D000792987298C29A229A829AB29AE29340A94
:1000E000B40082074628E328FA28FA28FB28FC28CF
:1000F0000429052908290929092909290A290A2978
:100100000B290D2947280B110718B6283009B20012
:10011000B107031CAF28310882070714071407141E
:1001200007140714071407140714071407140714F7
:1001300007140714071407140714071407140714E7
:1001400007140714071407140714071407140714D7
:1001500007140710AE0A32091B3E8100DF28163E45
:1001600081000714AE0A1C30B10008003209B10743
:10017000031CDD283108820707100710071007103D
:1001800007100710071007100710071007100710B7
:1001900007100710071007100710071007100710A7
:1001A0000710071007100710071007100710071493
:1001B0003009B2001B3E8100B128163E81000710B5
:1001C0001D30B1000800910192018316FF309200AA
:1001D00083121930A400A600A500A70019309500CD
:1001E0009B008316071187108C0183128C010C3041
:1001F000970012150C290C291930A600A7001930F8
:100200009B000C309D000C290C29A80AA90A0C2976
:100210000C290C290C290C294728AA0AB60A4728B8
:100220008316813099002030980083129030980016
:1002300019250D30CC008101B3018A22B8008F3C12
:100240008F300318B8003808063EFA300318B8009B
:100250000130B3008A22B9008F3C8F300318B900F7
:100260003908063EFA300318B9000230B3008A227A
:10027000BA000330B3008A22BB00143C031C45299A
:100280003B080F3C1430031CBB000430B3008A222F
:10029000BC00061AB62B3A08843C0318542C0716E7
:1002A00086018B01CD01D5017524AB0A23162308E5
:1002B000A200A301A21C6629A30A221C6229A30A88
:1002C000221AA30A0630C20042246229D001D016A5
:1002D000D101D201D4010800B3018A22B8008F3CB9
:1002E0008F300318B8003808063EFA300318B800FB
:1002F00047280130B3008A22B9008F3C8F300318A1
:10030000B9003908063EFA300318B9004728023010
:10031000B3008A22BA0047280330B3008A22BB0008
:10032000143C031C99293B080F3C1430031CBB00F0
:10033000A129571CA1293B08613C0318A129613060
:10034000BB0047280430B3008A22BC00682247283B
:10035000A92233234728B221CD214728E821512261
:10036000A7244728280B9425250824020319CC2903
:10037000031CC229F839031DBF29250ACA290430E4
:100380002507CA29003CF839031DC8292503CA29B5
:1003900004302502A50095000800290B97252708A1
:1003A00026020319E729031CDD29F839031DDA2980
:1003B000270AE52904302707E529003CF839031D01
:1003C000E3292703E52904302702A7009B00080042
:1003D0002A0B372AD01AEE29501CF2293B08133C6D
:1003E000031CFB29370B372A8B13B701B001071009
:1003F000C3118611372A370BFE29072A8615C31524
:100400008101A0308B00B70A3930BF00352A073090
:100410003B07031C122A20303007031C122A300F1E
:10042000B000372A14303B02BE00393EBF00031033
:10043000BE0C0310BE0C3E08BF020310BE0C03101E
:10044000BE0C3E08BF070310BE0C3E083F0703105A
:10045000BF0030083F02031C352AFC390319352A36
:100460000330361C0230B007372A3F08B0000800BE
:100470003B08203C031C452A370B502A8B13B7013D
:10048000B0010710C3118611502A370B482A4E2A93
:100490008615C3158101A0308B00B70A3B08B00058
:1004A00008002B0B642AD01E652A3C08993C031CCB
:1004B000602A4D18642A752587154C10CD0A642AC8
:1004C0004D1C642A8711CD010800D01C602A592ACE
:1004D000360B862A50082039070620390319862A48
:1004E0002030D006D01A872A831681309900203018
:1004F00098008312903098001A081A0850144D186A
:10050000D0144D08D3004B30D10013250800D01073
:10051000192D0800B30E0310330C81389F00B30E61
:10052000B30A053033020319B3001830C800C80BF2
:10053000972A0108D03C031C992A1F151F199E2ACF
:10054000B30E0310330C81389F00B30E1E086400F5
:1005500008008F303902BF004A3EBD000310BF0CB7
:100560000310BF0C3F08BD070310BF0C3F08BD07B9
:100570000310BF0CBD023808BA3C03192B2B03181B
:10058000C52A053E03182B2B032BC530390203184F
:10059000E12A8F303902BF00C9000310BF0C0310DD
:1005A000BF0C3F08C9070310BF0C0310BF0C3F0866
:1005B000C90203103F0CC9070B30CA00DD24C90073
:1005C000F92AC5303902BF00C9000310BF0C03105F
:1005D000BF0C3F08C9070310BF0C0310BF0C3F0836
:1005E000C90203103F0CC9070B30CA00DD240B3CC5
:1005F000C9003808BA3CBF00CA0003103F0CCA0744
:10060000DD24BD072B2BBF303802C900BF0003100B
:10061000BF0C0310BF0C0310BF0C3F08C907031029
:10062000BF0C3F08C90203103F0CC907C53039028F
:10063000031C262BBF000310BF0C3F08CA00031089
:10064000BF0C03103F0C4A02293E272B29303D02E4
:10065000CA00DD24BD023D08A6001F3C031C0800A3
:100660001F30A60008008F303902BF004A3EBD008F
:100670000310BF0C0310BF0C3F08BD070310BF0CD5
:100680003F08BD070310BF0CBD023808BA3C031970
:10069000B32B0318982B053E0318B32BC530390232
:1006A00003186A2B8F303902BF00C9000310BF0C3A
:1006B0000310BF0C3F08C9070310BF0C0310BF0C89
:1006C0003F08C90203103F0CC9070B30CA00DD24E4
:1006D000C900822BC5303902BF00C9000310BF0C0E
:1006E0000310BF0C3F08C9070310BF0C0310BF0C59
:1006F0003F08C90203103F0CC9070B30CA00DD24B4
:100700000B3CC900BF303802BF00CA000310BF0C49
:100710000310BF0C0310BF0C3F08CA070310BF0C27
:100720003F08CA0203103F0CCA07DD24BD07B32BE4
:100730003808BA3CC9000310490CC907C530390252
:10074000031CAE2BBF000310BF0C3F08CA000310F0
:10075000BF0C03103F0C4A02293EAF2B29303D024B
:10076000CA00DD24BD023D08A400080086013A0845
:10077000993C0318D82B0319D82B3A089F3C03182F
:10078000CF2B0319CF2B3A08A33C0318CE2B031908
:10079000CE2B06156400061E8614CA2BD02BD42B34
:1007A00006150430CA00DB2B86140230CA00DB2B8E
:1007B00086140030CA004030C90004305E24043082
:1007C0005E2404305E244A088606C90BDD2B061A17
:1007D000032C0230B3008A22BA00B62B061E042C6A
:1007E000061E042C8B0197019D0140308700860175
:1007F000640006158030C90004305E240630860689
:10080000C90BFC2B8601032C152CF930860504300E
:100810005E24061504305E240630860604305E240D
:1008200006308606F9308605C3050B1C0800060E47
:100830000B104C05031908000630C400060E4C05C9
:1008400003190800C40B1E2C060E4C0503190800E2
:10085000C10064008B0197019D0140308700860133
:100860000230C2004108C11842240330C200C1193D
:1008700042240430C200411942240530C20041180C
:100880004224302C061130305E24061530305E24B0
:10089000061130305E24C20B452C0430C2003030CB
:1008A0005E24C20B4F2C080064008B0197019D0150
:1008B000403087008601861464005B2CC000640011
:1008C0000C1C5F2CA8308E0061308F000C10C00B08
:1008D0005F2C0800C0000C1C6B2CA8308E0061300F
:1008E0008F000C10C00B6B2C0800C5013A08843C2B
:1008F000031C842CC50A3A08803C031C842CC50ABE
:100900003A087A3C0318C50A4508C6004608C500DF
:10091000033903199B2CC50B8E2C982CC50B542C1A
:1009200006118614A22CC318A22CC3148614A22C60
:1009300086100615A22C86100615A22CC31CA22C0C
:10094000C31086104608C5000330C6000800C70162
:100950003A08843C031CB62CC70A3A08803C031CA6
:10096000B62CC70A3A087A3C0318C70A4608470259
:100970000318BC2C4708C60008003B08C200C20C84
:10098000C20CC20CC20CC20C420C0339013EC200A4
:1009900042243B08C200C20CC20C420C0739013E83
:1009A000C20042243B080739013EC2004224033002
:1009B000B3008A22BB006400BD2C49080319F32C44
:1009C0004A080319F32CCA01A201CA070318A20A94
:1009D000C90BE52C4A08CE002208CF00CA0DA20D93
:1009E000CA0D220D0800003449080319F32C4A08E7
:1009F0000319F32CCA01A201CA070318A20AC90BE2
:100A0000FC2C3F30CA070318A20ACA0DA20DCA0D5A
:100A1000220D08008316813099002030980083123F
:100A200090309800080083169801831298010713EC
:100A30000800831698018312980107170800030124
:100A40008C1E08001A08303E080003010C1A013001
:100A5000080099000800D01A080051080319392D20
:100A6000423C03190717D10B08000A251F251F2533
:100A700008001F25FF3903190800383C03194B2DC6
:100A8000063C0319502DA030D10019250800533021
:100A9000D100132508001E30D2000230D006472DA9
:100AA0001E30D2000130D006472D4D1C882D051E6A
:100AB0008B25051A871555081039050610390319B5
:100AC000622D6B2D051E080000305606031D080020
:100AD0000030D70008000630D6001030D506051AC1
:100AE00008000130D70087110800051A782D7B2DEA
:100AF0001030D5000800D50108004D1C08008B1CE3
:100B00000800061C852D8B10080087158B10080027
:100B10000030D70008000130D700080004308606F6
:100B200008000230860608008F30A40008008F30CD
:040B3000A600080013
:02400E00E63F8B
:00000001FF
