:020000040000FA
:040000008A01102839
:08000800A00003088312A1000F
:100010000B198320831221088300A00E200E0900F3
:100020008B0197019D018101B001A401A601A501E9
:10003000A701A801A901AA01AB01403087008601F0
:10004000A3011D30B10083163F308500F1308600DA
:10005000A030870002309F00C83081000E080339AD
:100060008E140E148312A30018300305A304640039
:10007000B401B601B701C301A8308E0061308F0012
:10008000013090005730B500D601D701102164002F
:100090000C1C4728A8308E0061308F000C107E2485
:1000A0000D26BB25E525B50F6428D60345181E2669
:1000B000C51821264C145730B500360B6F28B40AEA
:1000C00034080F39031916250730350582076C29C6
:1000D000792987298C29A229A829AB29AE29340A94
:1000E000B40082074628E328FA28FA28FB28FC28CF
:1000F0000429052908290929092909290A290A2978
:100100000B290D2947280B110718B6283009B20012
:10011000B107031CAF28310882070714071407141E
:1001200007140714071407140714071407140714F7
:1001300007140714071407140714071407140714E7
:1001400007140714071407140714071407140714D7
:1001500007140710AE0A32091B3E8100DF28163E45
:1001600081000714AE0A1C30B10008003209B10743
:10017000031CDD283108820707100710071007103D
:1001800007100710071007100710071007100710B7
:1001900007100710071007100710071007100710A7
:1001A0000710071007100710071007100710071493
:1001B0003009B2001B3E8100B128163E81000710B5
:1001C0001D30B1000800910192018316FF309200AA
:1001D00083121930A400A600A500A70019309500CD
:1001E0009B008316071187108C0183128C010C3041
:1001F000970012150C290C291930A600A7001930F8
:100200009B000C309D000C290C29A80AA90A0C2976
:100210000C290C290C290C294728AA0AB60A4728B8
:100220008316813099002030980083129030980016
:10023000A9250D30CC008101B3011A23B8008F3CF1
:100240008F300318B8003808063EFA300318B8009B
:100250000130B3001A23B9008F3C8F300318B90066
:100260003908063EFA300318B9000230B3001A23E9
:10027000BA000330B3001A23BB00143C031C452909
:100280003B080F3C1430031CBB000430B3001A239E
:10029000BC00061A462C3A08843C0318E42C0716C6
:1002A00086018B01CD01D5010525AB0A2316230854
:1002B000A200A301A21C6629A30A221C6229A30A88
:1002C000221AA30A0630C200D2246229D001D01615
:1002D000D101D201D4010800B3011A23B8008F3C28
:1002E0008F300318B8003808063EFA300318B800FB
:1002F00047280130B3001A23B9008F3C8F30031810
:10030000B9003908063EFA300318B9004728023010
:10031000B3001A23BA0047280330B3001A23BB00E6
:10032000143C031C99293B080F3C1430031CBB00F0
:10033000A129571CA1293B08C83C0318A129C83092
:10034000BB0047280430B3001A23BC00F82247281A
:100350003923C3234728B221CD214728E821E122B0
:1003600037254728280B2426250824020319CC29E1
:10037000031CC229F839031DBF29250ACA290430E4
:100380002507CA29003CF839031DC8292503CA29B5
:1003900004302502A50095000800290B2726270810
:1003A00026020319E729031CDD29F839031DDA2980
:1003B000270AE52904302707E529003CF839031D01
:1003C000E3292703E52904302702A7009B00080042
:1003D0002A0BC72AD01AEE29501CF2293B08133CDD
:1003E000031CFB29370BC72A8B13B701B001071079
:1003F000C3118611C72A370BFE29072A8615C31594
:100400008101A0308B00B70A3830BF00C52A073001
:100410003B07031C122A20303007031C122A300F1E
:10042000B000C72A14303B02BE00383E3B08031020
:10043000E83C031C352A03103B08BF3C031C452A3B
:1004400003103B08A03C031C502A03103B087A3CD5
:10045000031C622A03103B08573C031C802A03102C
:100460003B082E3C031C9E2AB62AA630BF00E8306B
:100470003B02BE000310BE0D03103E0D0310BF076C
:10048000031CB92AFF30BF00B92A6630BF00BF3055
:100490003B02BE0003103E0CBE073E08BF07B92A50
:1004A0005130BF00A0303B02BE0003103E0CBE071F
:1004B0003E08BF07031066303F02031CB92A6630AE
:1004C000BF00B92A4930BF007A303B02BE0003109A
:1004D000BE0C03103E0CBF070310BE0C0310BE0C75
:1004E0000310BE0C03103E08BF0203103E0CBF02F7
:1004F000031051303F02031CB92A5130BF00B92A02
:100500004230BF0057303B02BE000310BE0C031048
:100510003E0CBF070310BE0C0310BE0C0310BE0C34
:1005200003103E08BF0203103E0CBF020310493007
:100530003F02031CB92A4930BF00B92AFF30BF006F
:100540002E303B02BE000310BE0C03103E0CBF0752
:100550000310BE0C0310BE0C03103E08BF020310B4
:10056000BE0C03103E08BF020310B92A0E303B0731
:10057000BF0030083F02031CC52AFC390319C52AF5
:100580000330361C0230B007C72A3F08B00008000D
:100590003B08203C031CD52A370BE02A8B13B701FC
:1005A000B0010710C3118611E02A370BD82ADE2AC2
:1005B0008615C3158101A0308B00B70A3B08B00037
:1005C00008002B0BF42AD01EF52A3C08993C031C8A
:1005D000F02A4D18F42A052687154C10CD0AF42A66
:1005E0004D1CF42A8711CD010800D01CF02AE92AFD
:1005F000360B162B50082039070620390319162B05
:100600002030D006D01A172B831681309900203065
:1006100098008312903098001A081A0850144D1848
:10062000D0144D08D3004B30D100A3250800D010C2
:10063000A92D0800B30E0310330C81389F00B30EB0
:10064000B30A053033020319B3001830C800C80BD1
:10065000272B0108D03C031C292B1F151F192E2BFB
:10066000B30E0310330C81389F00B30E1E086400D4
:1006700008008F303902BF004A3EBD000310BF0C96
:100680000310BF0C3F08BD070310BF0C3F08BD0798
:100690000310BF0CBD023808BA3C0319BB2B03186A
:1006A000552B053E0318BB2B932BC530390203187D
:1006B000712B8F303902BF00C9000310BF0C03102B
:1006C000BF0C3F08C9070310BF0C0310BF0C3F0845
:1006D000C90203103F0CC9070B30CA006D25C900C1
:1006E000892BC5303902BF00C9000310BF0C0310AD
:1006F000BF0C3F08C9070310BF0C0310BF0C3F0815
:10070000C90203103F0CC9070B30CA006D250B3C12
:10071000C9003808BA3CBF00CA0003103F0CCA0722
:100720006D25BD07BB2BBF303802C900BF000310C9
:10073000BF0C0310BF0C0310BF0C3F08C907031008
:10074000BF0C3F08C90203103F0CC907C53039026E
:10075000031CB62BBF000310BF0C3F08CA000310D8
:10076000BF0C03103F0C4A02293EB72B29303D0233
:10077000CA006D25BD023D08A6001F3C031C0800F1
:100780001F30A60008008F303902BF004A3EBD006E
:100790000310BF0C0310BF0C3F08BD070310BF0CB4
:1007A0003F08BD070310BF0CBD023808BA3C03194F
:1007B000432C0318282C053E0318432CC53039025E
:1007C0000318FA2B8F303902BF00C9000310BF0C89
:1007D0000310BF0C3F08C9070310BF0C0310BF0C68
:1007E0003F08C90203103F0CC9070B30CA006D2532
:1007F000C900122CC5303902BF00C9000310BF0C5C
:100800000310BF0C3F08C9070310BF0C0310BF0C37
:100810003F08C90203103F0CC9070B30CA006D2501
:100820000B3CC900BF303802BF00CA000310BF0C28
:100830000310BF0C0310BF0C3F08CA070310BF0C06
:100840003F08CA0203103F0CCA076D25BD07432CA1
:100850003808BA3CC9000310490CC907C530390231
:10086000031C3E2CBF000310BF0C3F08CA0003103E
:10087000BF0C03103F0C4A02293E3F2C29303D0299
:10088000CA006D25BD023D08A400080086013A0893
:10089000993C0318682C0319682C3A089F3C0318EC
:1008A0005F2C03195F2C3A08A33C03185E2C031934
:1008B0005E2C06156400061E86145A2C602C642CCF
:1008C00006150430CA006B2C86140230CA006B2C4B
:1008D00086140030CA004030C9000430EE240430D1
:1008E000EE240430EE244A088606C90B6D2C061A45
:1008F000932C0230B3001A23BA00462C061E942C07
:10090000061E942C8B0197019D01403087008601C3
:10091000640006158030C9000430EE2406308606D7
:10092000C90B8C2C8601932CA52CF930860504303C
:10093000EE2406150430EE24063086060430EE243C
:1009400006308606F9308605C3050B1C0800060E26
:100950000B104C05031908000630C400060E4C05A8
:1009600003190800C40BAE2C060E4C050319080031
:10097000C10064008B0197019D0140308700860112
:100980000230C2004108C118D2240330C200C1198C
:10099000D2240430C2004119D2240530C2004118CB
:1009A000D224C02C06113030EE2406153030EE244F
:1009B00006113030EE24C20BD52C0430C20030308A
:1009C000EE24C20BDF2C080064008B0197019D010F
:1009D00040308700860186146400EB2CC000640060
:1009E0000C1CEF2CA8308E0061308F000C10C00B57
:1009F000EF2C0800C0000C1CFB2CA8308E006130CE
:100A00008F000C10C00BFB2C0800C5013A08843C79
:100A1000031C142DC50A3A08803C031C142DC50A7A
:100A20003A087A3C0318C50A4508C6004608C500BE
:100A3000033903192B2DC50B1E2D282DC50BE42CB6
:100A400006118614322DC318322DC3148614322D8C
:100A500086100615322D86100615322DC31C322D38
:100A6000C31086104608C5000330C6000800C70141
:100A70003A08843C031C462DC70A3A08803C031CF4
:100A8000462DC70A3A087A3C0318C70A46084702A7
:100A900003184C2D4708C60008003B08C200C20CD2
:100AA000C20CC20CC20CC20C420C0339013EC20083
:100AB000D2243B08C200C20CC20C420C0739013ED2
:100AC000C200D2243B080739013EC200D2240330C1
:100AD000B3001A23BB0064004D2D49080319832D70
:100AE0004A080319832DCA01A201CA070318A20AE2
:100AF000C90B752D4A08CE002208CF00CA0DA20DE1
:100B0000CA0D220D0800003449080319832D4A0834
:100B10000319832DCA01A201CA070318A20AC90B2F
:100B20008C2D3F30CA070318A20ACA0DA20DCA0DA8
:100B3000220D08008316813099002030980083121E
:100B400090309800080083169801831298010713CB
:100B50000800831698018312980107170800030103
:100B60008C1E08001A08303E080003010C1A0130E0
:100B7000080099000800D01A080051080319C92D6F
:100B8000423C03190717D10B08009A25AF25AF2562
:100B90000800AF25FF3903190800383C0319DB2D85
:100BA000063C0319E02DA030D100A92508005330E0
:100BB000D100A32508001E30D2000230D006D72D68
:100BC0001E30D2000130D006D72D4D1C182E051E28
:100BD0001B26051A87155508103905061039031903
:100BE000F22DFB2D051E080000305606031D0800DF
:100BF0000030D70008000630D6001030D506051AA0
:100C000008000130D70087110800051A082E0B2EA6
:100C10001030D5000800D50108004D1C08008B1CC1
:100C20000800061C152E8B10080087158B10080075
:100C30000030D70008000130D700080004308606D5
:100C400008000230860608008F30A40008008F30AC
:040C5000A6000800F2
:02400E00E63F8B
:00000001FF
