:020000040000FA
:040000008A01102839
:08000800A00003088312A1000F
:100010000B198320831221088300A00E200E0900F3
:100020008B0197019D018101B001A401A601A501E9
:10003000A701A801A901AA01AB01403087008601F0
:10004000A3011D30B10083163F308500F1308600DA
:10005000A030870002309F00C83081000E080339AD
:100060008E140E148312A30018300305A304640039
:10007000B401B601B701C301A8308E0061308F0012
:10008000013090005730B500D601D7010B21640034
:100090000C1C4728A8308E0061308F000C10D8222D
:1000A000672415243F24B50F6428D6034518782407
:1000B000C5187B244C145730B500360B6F28B40A92
:1000C00034080F3903197023073035058207672973
:1000D00074297D29822998299E29A029A229340AD8
:1000E000B40082074628E328FA28FA28FB28FC28CF
:1000F000FF280029032904290429042905290529A1
:100100000629082947280B110718B6283009B2001C
:10011000B107031CAF28310882070714071407141E
:1001200007140714071407140714071407140714F7
:1001300007140714071407140714071407140714E7
:1001400007140714071407140714071407140714D7
:1001500007140710AE0A32091B3E8100DF28163E45
:1001600081000714AE0A1C30B10008003209B10743
:10017000031CDD283108820707100710071007103D
:1001800007100710071007100710071007100710B7
:1001900007100710071007100710071007100710A7
:1001A0000710071007100710071007100710071493
:1001B0003009B2001B3E8100B128163E81000710B5
:1001C0001D30B1000800910192018316FF309200AA
:1001D00083121930A400A600A500A70019309500CD
:1001E0009B018316071187108C0183128C010C3040
:1001F00097001215072907290C309D0007290729A8
:10020000A80AA90A0729072907290729072947282A
:10021000AA0AB60A47288316813099002030980030
:1002200083129030980003240D30CC008101B3017B
:100230006322B8008F3C8F300318B8003808063EA0
:10024000FA300318B8000130B3006322B9008F3CC4
:100250008F300318B9003908063EFA300318B90088
:100260000230B3006322BA000330B3006322BB0044
:10027000143C031C40293B080F3C1430031CBB00FA
:100280000430B3006322BC00061AA02A3A08843C5A
:1002900003183E2B071686018B01CD01D5015F2384
:1002A000AB0A23162308A200A301A21C6129A30AFA
:1002B000221C5D29A30A221AA30A0630C2002C239D
:1002C0005D29D001D016D101D201D4010800B301BB
:1002D0006322B8008F3C8F300318B8003808063E00
:1002E000FA300318B80047280130B3006322B90080
:1002F0008F3C8F300318B90047280230B3006322C7
:10030000BA0047280330B3006322BB00143C031C2F
:100310008F293B080F3C1430031CBB009729571C46
:1003200097293B08573C031897295730BB004728AB
:100330000430B3006322BC004122472882224728B0
:10034000A6214728C1212A2291234728280B7E2451
:10035000250824020319C029031CB629F839031DF6
:10036000B329250ABE2904302507BE29003CF839E7
:10037000031DBC292503BE2904302502A5009500D4
:1003800008002A0B102AD01AC729501CCB293B0879
:10039000133C031CD429370B102A8B13B701B0016F
:1003A0000710C3118611102A370BD729E0298615AB
:1003B000C3158101A0308B00B70A4330BF000E2A5D
:1003C00007303B07031CEB2920303007031CEB29C7
:1003D000300FB000102A14303B02BE00433EBF0075
:1003E0000310BE0C0310BE0C3E08BF020310BE0C6F
:1003F0000310BE0C3E08BF070310BE0C03103E0CDA
:100400003F02BF0030083F02031C0E2AFC390319CB
:100410000E2A0330361C0230B007102A3F08B00005
:1004200008003B08203C031C1E2A370B292A8B138B
:10043000B701B0010710C3118611292A370B212AF1
:10044000272A8615C3158101A0308B00B70A3B0807
:10045000B00008002B0B3D2AD01E3E2A3C08993CD8
:10046000031C392A4D183D2A5F2487154C10CD0AEC
:100470003D2A4D1C3D2A8711CD010800D01C392A88
:10048000322A360B5F2A5008203907062039031913
:100490005F2A2030D006D01A602A83168130990056
:1004A000203098008312903098001A081A085014CF
:1004B0004D18D0144D08D3004B30D100FD23080057
:1004C000D010032C0800B30E0310330C81389F00AA
:1004D000B30EB30A053033020319B3001830C80055
:1004E000C80B702A0108D03C031C722A1F151F1963
:1004F000772AB30E0310330C81389F00B30E1E0809
:10050000640008008F303902BF003D3EBD0003107B
:10051000BF0C3F08BD070310BF0C3F080310BD0709
:1005200003189A2A0310BF0C0310BF0C03103F0CD2
:10053000BD029D2A0310FF30BD003D08A400080045
:1005400086013A08993C0318C22A0319C22A3A08BC
:100550009F3C0318B92A0319B92A3A08A33C031887
:10056000B82A0319B82A06156400061E8614B42A90
:10057000BA2ABE2A06150430CA00C52A86140230DB
:10058000CA00C52A86140030CA004030C9000430B1
:10059000482304304823043048234A088606C90B00
:1005A000C72A061AED2A0230B3006322BA00A02A35
:1005B000061EEE2A061EEE2A8B0197019D01403091
:1005C00087008601640006158030C9000430482386
:1005D00006308606C90BE62A8601ED2AFF2AF93085
:1005E0008605043048230615043048230630860665
:1005F0000430482306308606F9308605C3050B1CF7
:100600000800060E0B104C05031908000630C40044
:10061000060E4C0503190800C40B082B060E4C05EA
:1006200003190800C10064008B0197019D0140304F
:10063000870086010230C2004108C1182C23033014
:10064000C200C1192C230430C20041192C230530EB
:10065000C20041182C231A2B0611303048230615EE
:1006600030304823061130304823C20B2F2B043082
:10067000C20030304823C20B392B080064008B01C4
:1006800097019D0140308700860186146400452B48
:10069000C00064000C1C492BA8308E0061308F0014
:1006A0000C10C00B492B0800C0000C1C552BA830A7
:1006B0008E0061308F000C10C00B552B0800C50157
:1006C0003A08843C031C6E2BC50A3A08803C031C84
:1006D0006E2BC50A3A087A3C0318C50A4508C600BD
:1006E0004608C50003390319852BC50B782B822BCF
:1006F000C50B3E2B061186148C2BC3188C2BC314F0
:1007000086148C2B861006158C2B861006158C2BC8
:10071000C31C8C2BC31086104608C5000330C600CE
:100720000800C7013A08843C031CA02BC70A3A08FA
:10073000803C031CA02BC70A3A087A3C0318C70A5E
:10074000460847020318A62B4708C60008003B08C6
:10075000C200C20CC20CC20CC20CC20C420C033947
:10076000013EC2002C233B08C200C20CC20C420C4A
:100770000739013EC2002C233B080739013EC20065
:100780002C230330B3006322BB006400A72B49086D
:100790000319DD2B4A080319DD2BCA01A201CA0780
:1007A0000318A20AC90BCF2B4A08CE002208CF009B
:1007B000CA0DA20DCA0D220D080000344908031904
:1007C000DD2B4A080319DD2BCA01A201CA07031851
:1007D000A20AC90BE62B3F30CA070318A20ACA0DAA
:1007E000A20DCA0D220D0800831681309900203019
:1007F00098008312903098000800831698018312A5
:1008000098010713080083169801831298010717AF
:10081000080003018C1E08001A08303E080003017E
:100820000C1A0130080099000800D01A080051087D
:100830000319232C423C03190717D10B0800F4239A
:100840000924092408000924FF3903190800383C49
:100850000319352C063C03193A2CA030D10003248F
:1008600008005330D100FD2308001E30D2000230B2
:10087000D006312C1E30D2000130D006312C4D1C58
:10088000722C051E7524051A8715550810390506A2
:10089000103903194C2C552C051E08000030560643
:1008A000031D08000030D70008000630D6001030C5
:1008B000D506051A08000130D70087110800051A6F
:1008C000622C652C1030D5000800D50108004D1CA5
:1008D00008008B1C0800061C6F2C8B100800871565
:1008E0008B1008000030D70008000130D700080046
:1008F0000430860608000230860608008F30A40007
:0809000008008F30A60008007A
:02400E00E63F8B
:00000001FF
