:020000040000FA
:040000008A01102839
:08000800A00003088312A1000F
:100010000B198320831221088300A00E200E0900F3
:100020008B0197019D018101B001A401A601A501E9
:10003000A701A801A901AA01AB01403087008601F0
:10004000A3011D30B10083163F308500F1308600DA
:10005000A030870002309F00C83081000E080339AD
:100060008E140E148312A30018300305A304640039
:10007000B401B601B701C301A8308E0061308F0012
:10008000013090005730B500D601D701102164002F
:100090000C1C4728A8308E0061308F000C1084247F
:1000A0001326C125EB25B50F6428D6034518242651
:1000B000C51827264C145730B500360B6F28B40AE4
:1000C00034080F3903191C250730350582076C29C0
:1000D000792987298C29A229A829AB29AE29340A94
:1000E000B40082074628E328FA28FA28FB28FC28CF
:1000F0000429052908290929092909290A290A2978
:100100000B290D2947280B110718B6283009B20012
:10011000B107031CAF28310882070714071407141E
:1001200007140714071407140714071407140714F7
:1001300007140714071407140714071407140714E7
:1001400007140714071407140714071407140714D7
:1001500007140710AE0A32091B3E8100DF28163E45
:1001600081000714AE0A1C30B10008003209B10743
:10017000031CDD283108820707100710071007103D
:1001800007100710071007100710071007100710B7
:1001900007100710071007100710071007100710A7
:1001A0000710071007100710071007100710071493
:1001B0003009B2001B3E8100B128163E81000710B5
:1001C0001D30B1000800910192018316FF309200AA
:1001D00083121930A400A600A500A70019309500CD
:1001E0009B008316071187108C0183128C010C3041
:1001F000970012150C290C291930A600A7001930F8
:100200009B000C309D000C290C29A80AA90A0C2976
:100210000C290C290C290C294728AA0AB60A4728B8
:100220008316813099002030980083129030980016
:10023000AF250D30CC008101B3012023B8008F3CE5
:100240008F300318B8003808063EFA300318B8009B
:100250000130B3002023B9008F3C8F300318B90060
:100260003908063EFA300318B9000230B3002023E3
:10027000BA000330B3002023BB00143C031C452903
:100280003B080F3C1430031CBB000430B300202398
:10029000BC00061A4C2C3A08843C0318EA2C0716BA
:1002A00086018B01CD01D5010B25AB0A231623084E
:1002B000A200A301A21C6629A30A221C6229A30A88
:1002C000221AA30A0630C200D8246229D001D0160F
:1002D000D101D201D4010800B3012023B8008F3C22
:1002E0008F300318B8003808063EFA300318B800FB
:1002F00047280130B3002023B9008F3C8F3003180A
:10030000B9003908063EFA300318B9004728023010
:10031000B3002023BA0047280330B3002023BB00DA
:10032000143C031C99293B080F3C1430031CBB00F0
:10033000A129571CA1293B08C83C0318A129C83092
:10034000BB0047280430B3002023BC00FE2247280E
:100350003F23C9234728B221CD214728E821E7229E
:100360003D254728280B2A26250824020319CC29D5
:10037000031CC229F839031DBF29250ACA290430E4
:100380002507CA29003CF839031DC8292503CA29B5
:1003900004302502A50095000800290B2D2627080A
:1003A00026020319E729031CDD29F839031DDA2980
:1003B000270AE52904302707E529003CF839031D01
:1003C000E3292703E52904302702A7009B00080042
:1003D0002A0BCD2AD01AEE29501CF2293B08133CD7
:1003E000031CFB29370BCD2A8B13B701B001071073
:1003F000C3118611CD2A370BFE29072A8615C3158E
:100400008101A0308B00B70A2E30BF00CB2A073005
:100410003B07031C122A20303007031C122A300F1E
:10042000B000CD2A14303B02BE002E3E3B08031024
:10043000E83C031C352A03103B08BF3C031C452A3B
:1004400003103B08A03C031C502A03103B087A3CD5
:10045000031C622A03103B08573C031C802A03102C
:100460003B082E3C031C9E2ABC2AA630BF00E83065
:100470003B02BE000310BE0D03103E0D0310BF076C
:10048000031CBF2AFF30BF00BF2A6630BF00BF3049
:100490003B02BE0003103E0CBE073E08BF07BF2A4A
:1004A0005130BF00A0303B02BE0003103E0CBE071F
:1004B0003E08BF07031066303F02031CBF2A6630A8
:1004C000BF00BF2A4930BF007A303B02BE00031094
:1004D000BE0C03103E0CBF070310BE0C0310BE0C75
:1004E0000310BE0C03103E08BF0203103E0CBF02F7
:1004F000031051303F02031CBF2A5130BF00BF2AF6
:100500004230BF0057303B02BE000310BE0C031048
:100510003E0CBF070310BE0C0310BE0C0310BE0C34
:1005200003103E08BF0203103E0CBF020310493007
:100530003F02031CBF2A4930BF00BF2A3B30BF0027
:100540002E303B02BE000310BE0C03103E0CBF0752
:100550000310BE0C0310BE0C03103E08BF020310B4
:10056000BE0C03103E08BF02031042303F02031CC2
:10057000BF2A4230BF00BF2A0E303B07BF00300801
:100580003F02031CCB2AFC390319CB2A0330361C4B
:100590000230B007CD2A3F08B00008003B08203CDD
:1005A000031CDB2A370BE62A8B13B701B0010710B7
:1005B000C3118611E62A370BDE2AE42A8615C315F5
:1005C0008101A0308B00B70A3B08B00008002B0B5C
:1005D000FA2AD01EFB2A3C08993C031CF62A4D1827
:1005E000FA2A0B2687154C10CD0AFA2A4D1CFA2A36
:1005F0008711CD010800D01CF62AEF2A360B1C2BE0
:10060000500820390706203903191C2B2030D0064A
:10061000D01A1D2B83168130990020309800831248
:10062000903098001A081A0850144D18D0144D082C
:10063000D3004B30D100A9250800D010AF2D080001
:10064000B30E0310330C81389F00B30EB30A05308C
:1006500033020319B3001830C800C80B2D2B010852
:10066000D03C031C2F2B1F151F19342BB30E031066
:10067000330C81389F00B30E1E08640008008F30D1
:100680003902BF004A3EBD000310BF0C0310BF0C6F
:100690003F08BD070310BF0C3F08BD070310BF0C88
:1006A000BD023808BA3C0319C12B03185B2B053E69
:1006B0000318C12B992BC53039020318772B8F30C3
:1006C0003902BF00C9000310BF0C0310BF0C3F0864
:1006D000C9070310BF0C0310BF0C3F08C902031069
:1006E0003F0CC9070B30CA007325C9008F2BC530DA
:1006F0003902BF00C9000310BF0C0310BF0C3F0834
:10070000C9070310BF0C0310BF0C3F08C902031038
:100710003F0CC9070B30CA0073250B3CC9003808D1
:10072000BA3CBF00CA0003103F0CCA077325BD07BF
:10073000C12BBF303802C900BF000310BF0C03102B
:10074000BF0C0310BF0C3F08C9070310BF0C3F08C4
:10075000C90203103F0CC907C5303902031CBC2B6A
:10076000BF000310BF0C3F08CA000310BF0C0310EA
:100770003F0C4A02293EBD2B29303D02CA00732599
:10078000BD023D08A6001F3C031C08001F30A60048
:1007900008008F303902BF004A3EBD000310BF0C75
:1007A0000310BF0C3F08BD070310BF0C3F08BD0777
:1007B0000310BF0CBD023808BA3C0319492C0318BA
:1007C0002E2C053E0318492CC53039020318002C85
:1007D0008F303902BF00C9000310BF0C0310BF0CDB
:1007E0003F08C9070310BF0C0310BF0C3F08C90224
:1007F00003103F0CC9070B30CA007325C900182C21
:10080000C5303902BF00C9000310BF0C0310BF0C74
:100810003F08C9070310BF0C0310BF0C3F08C902F3
:1008200003103F0CC9070B30CA0073250B3CC900ED
:10083000BF303802BF00CA000310BF0C0310BF0C4A
:100840000310BF0C3F08CA070310BF0C3F08CA02C1
:1008500003103F0CCA077325BD07492C3808BA3C62
:10086000C9000310490CC907C5303902031C442CC8
:10087000BF000310BF0C3F08CA000310BF0C0310D9
:100880003F0C4A02293E452C29303D02CA007325FF
:10089000BD023D08A400080086013A08993C0318EF
:1008A0006E2C03196E2C3A089F3C0318652C031913
:1008B000652C3A08A33C0318642C0319642C061514
:1008C0006400061E8614602C662C6A2C0615043003
:1008D000CA00712C86140230CA00712C86140030B4
:1008E000CA004030C9000430F4240430F424043039
:1008F000F4244A088606C90B732C061A992C023078
:10090000B3002023BA004C2C061E9A2C061E9A2CEB
:100910008B0197019D014030870086016400061518
:100920008030C9000430F42406308606C90B922CAE
:100930008601992CAB2CF93086050430F424061579
:100940000430F424063086060430F424063086068B
:10095000F9308605C3050B1C0800060E0B104C056C
:10096000031908000630C400060E4C0503190800E0
:10097000C40BB42C060E4C0503190800C10064001A
:100980008B0197019D014030870086010230C20033
:100990004108C118D8240330C200C119D82404303A
:1009A000C2004119D8240530C2004118D824C62CF1
:1009B00006113030F42406153030F424061130309E
:1009C000F424C20BDB2C0430C2003030F424C20B00
:1009D000E52C080064008B0197019D0140308700E1
:1009E000860186146400F12CC00064000C1CF52CF8
:1009F000A8308E0061308F000C10C00BF52C080061
:100A0000C0000C1C012DA8308E0061308F000C102E
:100A1000C00B012D0800C5013A08843C031C1A2DA7
:100A2000C50A3A08803C031C1A2DC50A3A087A3CCC
:100A30000318C50A4508C6004608C500033903194E
:100A4000312DC50B242D2E2DC50BEA2C0611861435
:100A5000382DC318382DC3148614382D861006156A
:100A6000382D86100615382DC31C382DC31086105E
:100A70004608C5000330C6000800C7013A08843C98
:100A8000031C4C2DC70A3A08803C031C4C2DC70A96
:100A90003A087A3C0318C70A460847020318522D41
:100AA0004708C60008003B08C200C20CC20CC20CBA
:100AB000C20CC20C420C0339013EC200D8243B08D0
:100AC000C200C20CC20C420C0739013EC200D8243D
:100AD0003B080739013EC200D8240330B30020236D
:100AE000BB006400532D49080319892D4A080319D6
:100AF000892DCA01A201CA070318A20AC90B7B2DBE
:100B00004A08CE002208CF00CA0DA20DCA0D220D40
:100B10000800003449080319892D4A080319892D52
:100B2000CA01A201CA070318A20AC90B922D3F30BD
:100B3000CA070318A20ACA0DA20DCA0D220D080089
:100B400083168130990020309800831290309800ED
:100B50000800831698018312980107130800831672
:100B60009801831298010717080003018C1E0800E2
:100B70001A08303E080003010C1A013008009900E1
:100B80000800D01A080051080319CF2D423C031960
:100B90000717D10B0800A025B525B5250800B525F8
:100BA000FF3903190800383C0319E12D063C0319ED
:100BB000E62DA030D100AF2508005330D100A92583
:100BC00008001E30D2000230D006DD2D1E30D200CB
:100BD0000130D006DD2D4D1C1E2E051E2126051AC6
:100BE000871555081039050610390319F82D012EFF
:100BF000051E080000305606031D08000030D7000F
:100C000008000630D6001030D506051A080001305D
:100C1000D70087110800051A0E2E112E1030D500AE
:100C20000800D50108004D1C08008B1C0800061C9C
:100C30001B2E8B10080087158B1008000030D70082
:100C400008000130D7000800043086060800023092
:100C5000860608008F30A40008008F30A600080028
:02400E00E63F8B
:00000001FF
